:020000040000FA
:060000000A128A11FA2F1A
:100DE000831203130708031DF62EF72EFE2E0708A5
:100DF00087000130F000700887070B2F0708F0000C
:100E000070078700871F052F062F0A2F0617F80186
:100E1000F9010B2F06130800831203130808031DA2
:100E2000122F132F1A2F080888000130F0007008C5
:100E30008807272F0808F00070078800881F212FD7
:100E4000222F262F8617F801F901272F8613080075
:100E500083160317880189018316031389018312FE
:100E60000313890183160313870183120313870178
:100E70008316031388018312031388010F3083162E
:100E800003138600831203138601080001308312C6
:100E9000031389000230F2000430F100BA30F00090
:100EA000F00B502FF10B502FF20B502F0000F301DD
:100EB000F401831203130908F0007007890002305F
:100EC000F2000430F100BA30F000F00B652FF10BA6
:100ED000652FF20B652F00000130F3070318F40AA9
:100EE0000030F4077408803AFF0080307F02031D51
:100EF0007B2F03307302031C7E2F7F2F592F01306D
:100F0000F8000030F900831203138801860187017D
:100F100008000A128A1128270A128A118312031361
:100F2000061C932F942F9F2F78087904031D992F67
:100F30009A2F9F2F0A128A1146270A128A118312AA
:100F40000313861CA42FA52FBD2F7808790403193D
:100F5000AA2FAB2FBD2F0A128A11F0260A128A116E
:100F60000230F7000430F600BA30F500F50BB62F6A
:100F7000F60BB62FF70BB62F000083120313061DD6
:100F8000C22FC32FDB2F780879040319C82FC92F6C
:100F9000DB2F0A128A110C270A128A110230F7007D
:100FA0000430F600BA30F500F50BD42FF60BD42F31
:100FB000F70BD42F000083120313861DE02FE12FBF
:100FC0008E2F0230F7000430F600BA30F500F50B32
:100FD000E72FF60BE72FF70BE72F00008312031321
:100FE0008801860187018901F801F9018E2F0A1213
:100FF0008A110028F801F90183010A128A11892F48
:04400E00D420FF3F7C
:00000001FF
